:1000000045C0000060C000005EC000005CC0000091
:100010005AC0000058C0000056C0000054C0000084
:1000200052C0000050C000004EC000004CC0000094
:100030004AC00000C9C0000046C0000044C0000023
:1000400042C0000040C000003EC000003CC00000B4
:100050003AC0000038C0000036C0000034C00000C4
:1000600032C0000030C000002EC000002CC00000D4
:100070002AC0000028C0000026C0000024C00000E4
:1000800022C0000020C000001EC0000011241FBEBE
:10009000CFEFD0E4DEBFCDBF11E0A0E0B1E0ECEAED
:1000A000F3E000E00BBF02C007900D92A430B1074F
:1000B000D9F721E0A4E0B1E001C01D92A932B20756
:1000C000E1F73CD171C19CCF5D9A089518161906CD
:1000D0005CF00895000021503109E1F74F5F5F4F58
:1000E0008417950719F4089540E050E027E033E0C5
:1000F000F1CF5E9888B95F9A00005F9882E090E047
:10010000E5CF0895813118F48158F3CF08958155D2
:10011000F0CF089584E690E0D9DF88E3EADF86E057
:10012000E8DF8FE0E6DF81E0E4DF8AE090E0CECF39
:1001300008955E9A88B95F9A00005F9881E090E028
:10014000C5CF0895EF92FF920F931F93CF93DF9344
:10015000CBE0D1E00F2EF3E2EF2EF1E0FF2EF02DF9
:100160008E0189858823C9F04D815E816F817885F4
:1001700089819A81AB81BC81481759076A077B073F
:1001800060F08881EA85FB85082E000C990B0995A3
:1001900088831D821E821F821886F80185819681C0
:1001A000A781B085C296A11DB11D85839683A783C3
:1001B000B0872C96CE15DF0599F6DF91CF911F9170
:1001C0000F91FF90EF9008951F920F920FB60F922C
:1001D00011240BB60F922F933F934F935F936F931E
:1001E0007F938F939F93AF93BF93EF93FF938091F0
:1001F000040190910501A0910601B09107010197BA
:10020000A109B1098093040190930501A09306010F
:10021000B0930701892B8A2B8B2B89F493DF809174
:10022000000190910101A0910201B091030180931E
:10023000040190930501A0930601B0930701FF917B
:10024000EF91BF91AF919F918F917F916F915F914E
:100250004F913F912F910F900BBE0F900FBE0F90BB
:100260001F90189560930001709301018093020123
:10027000909303016093040170930501809306013C
:10028000909307010895813081F0E1ECF0E08081E6
:1002900088618083E2ECF0E080818660808383E384
:1002A0008093C4001092C5000895E9ECF0E08081CD
:1002B00088618083EAECF0E080818660808383E35C
:1002C0008093CC001092CD000895009721F08130EA
:1002D000910581F007C0109228011092240181E05D
:1002E00090E0089580E0CFDF109228011092240161
:1002F00080E090E0089580EA84B981E58CBD08959E
:100300008EBD0DB407FEFDCF2C982C9A0895F3DF17
:100310008FEF87B918B88AB91BB80895009719F0FC
:10032000019739F002C0F3DF04C0F1DF80E090E014
:1003300008958FEFE5DF81E090E0089511B88FEF29
:1003400082B98AB91BB8EBE0F1E0108244E650E0D4
:1003500060E070E041835283638374831582168268
:100360001782108691E0918725E631E03387228756
:100370001486458756876787708B118A128A138A7D
:10038000148A958B2EE831E0378B268B87B918B805
:10039000C1DE9ADE85E0B6DE81E6CBDE62E370E0A8
:0C03A00080E090E05FDFFFCFF894FFCF1B
:0403AC00010000004C
:00000001FF
