S02A0000726C65653033375F72656163746976655F4C45445F6D61747269785F6373313232612E73726563B3
S113000045C0000060C000005EC000005CC000008D
S11300105AC0000058C0000056C0000054C0000080
S113002052C0000050C000004EC000004CC0000090
S11300304AC000008BC0000046C0000044C000005D
S113004042C0000040C000003EC000003CC00000B0
S11300503AC0000038C0000036C0000034C00000C0
S113006032C0000030C000002EC000002CC00000D0
S11300702AC0000028C0000026C0000024C00000E0
S113008022C0000020C000001EC0000011241FBEBA
S1130090CFEFD0E4DEBFCDBF11E0A0E0B1E0E2E6F7
S11300A0F3E000E00BBF02C007900D92A430B1074B
S11300B0D9F721E0A4E0B1E001C01D92A732B20754
S11300C0E1F71CD14CC19CCFEF92FF920F931F9389
S11300D0CF93DF93CAE0D1E00F2EF2E2EF2EF1E0EE
S11300E0FF2EF02D8E0189858823C9F04D815E8114
S11300F06F81788589819A81AB81BC8148175907C2
S11301006A077B0760F08881EA85FB85082E000C6E
S1130110990B099588831D821E821F821886F80117
S113012085819681A781B085C296A11DB11D858365
S11301309683A783B0872C96CE15DF0599F6DF91B9
S1130140CF911F910F91FF90EF9008951F920F92FE
S11301500FB60F9211240BB60F922F933F934F9328
S11301605F936F937F938F939F93AF93BF93EF931B
S1130170FF938091040190910501A0910601B09133
S113018007010197A109B109809304019093050126
S1130190A0930601B0930701892B8A2B8B2B89F43A
S11301A093DF8091000190910101A0910201B0912F
S11301B003018093040190930501A0930601B09379
S11301C00701FF91EF91BF91AF919F918F917F9123
S11301D06F915F914F913F912F910F900BBE0F90B4
S11301E00FBE0F901F90189560930001709301014A
S11301F080930201909303016093040170930501BD
S113020080930601909307010895813081F0E1EC19
S1130210F0E0808188618083E2ECF0E08081866098
S1130220808383E38093C4001092C5000895E9ECB1
S1130230F0E0808188618083EAECF0E08081866070
S1130240808383E38093CC001092CD0008958130A5
S113025041F0E0ECF0E080818823ECF78091C60067
S11302600895E8ECF0E080818823ECF78091CE00DB
S11302700895009719F0019779F005C010922601AE
S11302801092230109C080E0C0DF10922601109271
S1130290230180E090E0089580E0D9DF8093260177
S11302A080E0D5DF8093230181E090E0089580EA27
S11302B084B981E58CBD08958EBD0DB407FEFDCFD4
S11302C00895F5DF8FEF87B918B88AB91BB8089578
S11302D0F3DF8FEF88B98BB90895009719F0019770
S11302E039F002C0EEDF04C0ECDF80E090E0089556
S11302F06FEF8FEFEDDF81E090E0089511B88FEF9D
S113030082B98AB91BB881B912B88BB9EAE0F1E0B5
S1130310108244E650E060E070E0418352836383DE
S11303207483158216821782108681E0818729E3FF
S113033031E0338722871486458756876787708B19
S1130340118A128A138A148A858B8DE691E0978B21
S1130350868B62E370E080E090E046DFFFCFF894A4
S1050360FFCFC9
S10703620100000092
S9030000FC
