S02A0000726C65653033375F72656163746976655F4C45445F6D61747269785F6373313232612E73726563B3
S113000045C0000060C000005EC000005CC000008D
S11300105AC0000058C0000056C0000054C0000080
S113002052C0000050C000004EC000004CC0000090
S11300304AC00000AFC0000046C0000044C0000039
S113004042C0000040C000003EC000003CC00000B0
S11300503AC0000038C0000036C0000034C00000C0
S113006032C0000030C000002EC000002CC00000D0
S11300702AC0000028C0000026C0000024C00000E0
S113008022C0000020C000001EC0000011241FBEBA
S1130090CFEFD0E4DEBFCDBF11E0A0E0B1E0EAEBEA
S11300A0F3E000E00BBF02C007900D92A430B1074B
S11300B0D9F721E0A4E0B1E001C01D92A732B20754
S11300C0E1F74AD178C19CCF8BE0809381008DE722
S11300D090E0909389008093880082E080936F0081
S11300E0109285001092840080910001909101018A
S11300F0A0910201B091030180930601909307013E
S1130100A0930801B09309018FB780688FBF089549
S1130110EF92FF920F931F93CF93DF93CBE0D1E045
S11301200F2EF3E2EF2EF1E0FF2EF02D8E018985E4
S11301308823C9F04D815E816F81788589819A8198
S1130140AB81BC81481759076A077B0760F0888137
S1130150EA85FB85082E000C990B099588831D827E
S11301601E821F821886F80185819681A781B08539
S1130170C296A11DB11D85839683A783B0872C9653
S1130180CE15DF0599F6DF91CF911F910F91FF9066
S1130190EF9008951F920F920FB60F9211240BB691
S11301A00F922F933F934F935F936F937F938F930C
S11301B09F93AF93BF93EF93FF9380910601909128
S11301C00701A0910801B09109010197A109B109A2
S11301D08093060190930701A0930801B09309014D
S11301E0892B8A2B8B2B89F493DF809100019091CA
S11301F00101A0910201B091030180930601909343
S11302000701A0930801B0930901FF91EF91BF91F9
S1130210AF919F918F917F916F915F914F913F919A
S11302202F910F900BBE0F900FBE0F901F9018953B
S11302306093000170930101809302019093030184
S1130240609306017093070180930801909309015C
S1130250089581B18C7F81B982B1836082B98AB1FA
S113026080678AB91BB808959BB19F789BB99BB1ED
S1130270282F217030E022953295307F3227207F5D
S1130280322782708295880F807E282B292B2BB9E8
S113029008951F93CF93DF9310E0C0E0D0E0812F47
S11302A0E3DF80B1D16080B18C2F8160DD0FC82F76
S11302B0CC0F1F5F183099F78C2F90E09D2BDF91A6
S11302C0CF911F910895009719F0019759F002C03A
S11302D0C0DF08C0BEDF109205011092040180E067
S11302E090E00895D6DF909305018093040181E0A6
S11302F090E0089580EA84B981E58CBD0895962F35
S1130300917060FF02C02B9802C061FD2C988EBDD5
S11303100DB407FEFDCF992311F02B9A089561FDCA
S11303202C9A0895CF93C62F61E0E9DF62E08C2F09
S1130330E6DFCF910895009719F0019739F002C0D4
S1130340D9DF04C0D7DF80E090E0089567E087E05C
S1130350E9DF81E090E0089511B88FEF82B98AB99E
S11303601BB8EBE0F1E0108244E650E060E070E09E
S113037041835283638374831582168217821086A5
S113038081E0818723E631E033872287148645871D
S113039056876787708B118A128A138A148A858B11
S11303A08BE991E0978B868B62E370E080E090E0CC
S10D03B03FDF8ADEFFCFF894FFCF91
S10703BA010000003A
S9030000FC
