S02A0000726C65653033375F72656163746976655F4C45445F6D61747269785F6373313232612E73726563B3
S113000045C0000060C000005EC000005CC000008D
S11300105AC0000058C0000056C0000054C0000080
S113002052C0000050C000004EC000004CC0000090
S11300304AC00000F6C0000046C0000044C00000F2
S113004042C0000040C000003EC000003CC00000B0
S11300503AC0000038C0000036C0000034C00000C0
S113006032C0000030C000002EC000002CC00000D0
S11300702AC0000028C0000026C0000024C00000E0
S113008022C0000020C000001EC0000011241FBEBA
S1130090CFEFD0E4DEBFCDBF11E0A0E0B1E0ECE9EA
S11300A0F3E000E00BBF02C007900D92A430B1074B
S11300B0D9F721E0A4E0B1E001C01D92A633B20754
S11300C0E1F72ED169C19CCF009721F081309105D1
S11300D071F007C0109235011092310181E090E077
S11300E00895109235011092310180E090E0089556
S11300F0009719F0019779F007C081E080930A0115
S11301008093340180E00BC01092300110920901F9
S113011080E090E0089580910401883020F48F5F9E
S11301208093040102C01092040190910401809113
S11301300A01092E01C0880F0A94EAF7809330015E
S11301408091340101C0880F9A95EAF780930901E0
S113015081E090E008958BE0809381008DE790E04A
S1130160909389008093880082E080936F001092BE
S11301708500109284008091000190910101A0916A
S11301800201B09103018093050190930601A093AD
S11301900701B09308018FB780688FBF0895EF926D
S11301A0FF920F931F93CF93DF93CCE0D1E00F2EF8
S11301B0F0E3EF2EF1E0FF2EF02D8E0189858823E8
S11301C0C9F04D815E816F81788589819A81AB8187
S11301D0BC81481759076A077B0760F08881EA8564
S11301E0FB85082E000C990B099588831D821E82BD
S11301F01F821886F80185819681A781B085C296F1
S1130200A11DB11D85839683A783B0872C96CE1537
S1130210DF0599F6DF91CF911F910F91FF90EF9039
S113022008951F920F920FB60F9211240BB60F92DE
S11302302F933F934F935F936F937F938F939F93EA
S1130240AF93BF93EF93FF938091050190910601C3
S1130250A0910701B09108010197A109B109809308
S1130260050190930601A0930701B0930801892B1F
S11302708A2B8B2B89F493DF8091000190910101EB
S1130280A0910201B09103018093050190930601AE
S1130290A0930701B0930801FF91EF91BF91AF9133
S11302A09F918F917F916F915F914F913F912F918A
S11302B00F900BBE0F900FBE0F901F901895609378
S11302C000017093010180930201909303016093F4
S11302D00501709306018093070190930801089526
S11302E08FEF87B918B88AB91BB8089584B1826BA7
S11302F084B90895009719F0019741F003C0F0DF25
S1130300F5DF04C0EDDF80E090E0089580910901FD
S11303109091300198B980958BB981E090E008956F
S1130320ECE0F1E0108244E650E060E070E04183EC
S1130330528363837483158216821782108681E048
S1130340818724E630E033872287148608EC10E0A6
S113035020E030E0058716872787308B118A128AC0
S1130360138A148A858B28E730E0378B268B108E0E
S1130370418F528F638F748F158E168E178E10A235
S113038081A38AE791E093A382A362E370E080E013
S10F039090E095DFE0DEFFCFF894FFCF93
S107039C0100000058
S9030000FC
