S02B0000726C65653033375F696E66726172656473656E736F725F6D61747269785F6373313232612E737265B7
S113000045C000004BC0000049C0000047C00000CC
S113001045C0000043C0000041C000003FC00000D4
S11300203DC000003BC0000039C0000037C00000E4
S113003035C0000033C0000031C000002FC00000F4
S11300402DC000002BC0000029C0000027C0000004
S113005025C0000023C0000021C000001FC0000014
S11300601DC000001BC0000019C0000017C0000024
S113007015C0000013C0000011C000000FC0000034
S11300800DC000000BC0000009C0000011241FBEF9
S1130090CFEFD0E4DEBFCDBF41D05BC0B1CFEAE744
S11300A0F0E08081806E80830895ECE7F0E0908139
S11300B08770982B9083EAE7F0E0808180648083E6
S11300C0808184FFFDCFEAE7F0E080818061808356
S11300D010927C0080917800909179009695879594
S11300E0969587950895EAE7F0E08081806880839B
S11300F008958FEF84B915B8D2DFF5CF089580E065
S1130100D4DF883C10F0589801C0589A81E0CDDFC4
S1130110883C10F4599A089559980895CF93DF9321
S1130120CDB7DEB728970FB6F894DEBF0FBECDBFAC
S113013011B88FEF82B98AB91BB8DBDFFE013196A3
S113014088E0DF011D928A95E9F7CE010196D7DF99
S1090150FCCFF894FFCF80
S9030000FC
